:020000040800F2
:10000000D0090020550100083D1B0008C717000853
:1000100000000000000000000000000000000000E0
:10002000000000000000000000000000411B00086C
:1000300000000000000000003F1B0008431B0008F8
:100040006701000800000000670100086701000860
:1000500067010008670100086701000867010008E0
:10006000000000006701000895040008670100080F
:100070006701000867010008670100080000000030
:100080006701000800000000000000006701000890
:100090000000000067010008BD1B000867010008A0
:1000A0000000000067010008000000006701000870
:1000B00000F002F800F03EF80CA030C80838241810
:1000C0002D18A246671EAB4654465D46AC4201D190
:1000D00000F030F87E460F3E0FCCB6460126334284
:1000E00000D0FB1AA246AB4633431847A0250000B8
:1000F000C0250000103A02D378C878C1FAD8520758
:1001000001D330C830C101D504680C6070470000CD
:100110000023002400250026103A01D378C1FBD823
:10012000520700D330C100D50B6070471FB51FBD0B
:1001300010B510BD00F07BF91146FFF7F7FF02F094
:10014000EDF900F093F903B4FFF7F2FF03BC00F000
:1001500099F900000748804707480047FEE7FEE797
:10016000FEE7FEE7FEE7FEE704480549054A064BC1
:1001700070470000BB1B0008B1000008D00300203E
:10018000D0090020D0050020D0050020FEB505468E
:1001900010460C46184373D0AE468C460020AD1A6C
:1001A00001469C4167D36646002701243D46B61AA6
:1001B0009D4102D313463A462124654676462F04D4
:1001C000360C3E432D0CB61A9D4104D3150C1B046E
:1001D0002B4312041034654676462F06360A3E43FA
:1001E0002D0AB61A9D4104D3150E1B022B43120291
:1001F0000834654676462F0736093E432D09B61A60
:100200009D4104D3150F1B012B431201241D65468C
:100210007646AF07B6083E43AD08B61A9D4104D3F3
:10022000950F9B002B439200A41C65467646EF0772
:1002300076083E436D08B61A9D411AD392185B4169
:10024000641C16E00018764665464941B71A9D4180
:100250000191009009D36046B11A98418E468446B8
:10026000009801990025401C6941DD0752082A4386
:100270005B08641EE6D57246634603B0F0BDFFE737
:1002800000200146C046C0462A462346F5E701E065
:1002900004C0091F0429FBD28B0701D50280801CF2
:1002A000C90700D00270704700290BD0C30702D0E5
:1002B0000270401C491E022904D3830702D5028024
:1002C000801C891EE3E70022EEE70022DFE7002220
:1002D00003098B422CD3030A8B4211D300239C4683
:1002E0004EE003460B433CD4002243088B4231D3FB
:1002F00003098B421CD3030A8B4201D394463FE08F
:10030000C3098B4201D3CB01C01A524183098B42EE
:1003100001D38B01C01A524143098B4201D34B01D7
:10032000C01A524103098B4201D30B01C01A52413A
:10033000C3088B4201D3CB00C01A524183088B42C1
:1003400001D38B00C01A524143088B4201D34B00AA
:10035000C01A5241411A00D201465241104670471C
:100360005DE0CA0F00D04942031000D34042534021
:1003700000229C4603098B422DD3030A8B4212D3E1
:10038000FC22890112BA030A8B420CD38901921113
:100390008B4208D3890192118B4204D389013AD050
:1003A000921100E08909C3098B4201D3CB01C01A25
:1003B000524183098B4201D38B01C01A5241430938
:1003C0008B4201D34B01C01A524103098B4201D326
:1003D0000B01C01A5241C3088B4201D3CB00C01A93
:1003E000524183088B4201D38B00C01A5241D9D2AB
:1003F00043088B4201D34B00C01A5241411A00D22C
:100400000146634652415B10104601D34042002B27
:1004100000D54942704763465B1000D3404201B5A6
:100420000020C046C04602BD704770477047754601
:1004300000F024F8AE46050069465346C008C000E7
:10044000854618B020B5FFF78FFE60BC002749082D
:10045000B6460026C0C5C0C5C0C5C0C5C0C5C0C55C
:10046000C0C5C0C5403D49008D46704710B5044623
:10047000C046C0462046FFF766FE10BD00487047E4
:100480006C03002001491820ABBEFEE726000200E5
:100490007047000010B5024800F06AF810BD000077
:1004A0002803002010B504460068054940181421AF
:1004B000FFF70DFF800020640248E06310BD0000DC
:1004C000F8FFFDBF0000024030B5056C0124AC40D0
:1004D000C56B6C60046863604368102B036803D0CD
:1004E00099600068C26030BD9A600068C16030BD2C
:1004F00072B6FEE710B5040003D0607D002802D07C
:1005000006E0012010BD00202075204600F01EF8F6
:10051000022060752079002814D0A0682168086145
:100520002068816860229143E268114381602168FC
:10053000886880229043226910438860012060759A
:10054000002010BD0020C043E8E7000008B50068A7
:100550000549884207D10548426940210A43426162
:1005600040690840009008BD003002400010024081
:10057000F0B4C16B0D6801680C680422066C134668
:10058000B3402B420DD063070BD50B689B0602D4FA
:100590000B6893430B60016C8A40C16B4A60C16A6F
:1005A00019E00227B74002462F4001232032002FD6
:1005B00015D0A70713D50C68A40604D40C680A2527
:1005C000AC430C605370036C02219940C36B5960BB
:1005D00000211170816A002916D0F0BC0847082755
:1005E000B7402F4210D024070ED50C680E25AC431F
:1005F0000C60046C1946A140C46B61608363537046
:1006000000211170016BE6E7F0BC704770B5040083
:1006100021D0022120462030054641702268116811
:100620000E48A3680140606826691843E3683343B5
:10063000184363691843A3691843E36918430843DF
:1006400010602046FFF72EFF0021A1630120687093
:100650002970084670BD012070BD00000FC0FFFF6B
:10066000F8B504468C46203001780025012909D0D0
:100670000126067041780027012905D00770022560
:100680002846F8BD0220F8BD02214170A76320680A
:10069000016849084900016061462046FFF714FFE0
:1006A000E06A00282068016802D00E22114306E0AB
:1006B0000A2211430160206801680422914301600D
:1006C0002068016831430160DAE7000070B5044634
:1006D00000F0E6F80546601C02D0044800782418B3
:1006E00000F0DEF8401BA042FAD370BD08000020E5
:1006F000F8B5002303240125BAE02E469E40B446F7
:1007000032407CD00E79B607B60F012E01D0022EF2
:1007100017D186682746B6465E00B74000967646F3
:10072000BE43B646CF68009EB740764637438760E3
:1007300046686746BE430F79FF06FF0F9F40374369
:1007400047600E79F643B6070ED0C6682746B44612
:100750005E00B646B7406646BE43B4468F687646EE
:10076000B74066463743C7600E79B607B60F022E0C
:1007700014D1DE08B60036180096366A5F07B44614
:10078000FE0E0F27B646B7406646BE43B4460F6915
:100790007646B74066463743009E3762066827466E
:1007A000B4465E00B646B7406646BE430F79B446CF
:1007B000BF07BF0F7646B7406646374307604E68AF
:1007C000B603B60F53D02D4FBE692E43BE61BE692E
:1007D0009F08F607F60F2A4EBF00BE190096B668AE
:1007E0000F27B4469E07360FB646B7406646BE434F
:1007F0000927FF06B446B84202D1002710E036E0D0
:10080000204FB84201D101270AE01F4FB84201D161
:10081000022705E01D4FB84201D1032700E005275C
:100820007646B74066463743009EB760184EB668B6
:100830004F689643FF0200D51643154FBE60FE6811
:100840004F689643BF0200D51643114FFE607E6885
:100850004F689643BF0300D516430D4F7E603E6838
:100860004F689643FF0300D51643094A16605B1C88
:100870000A681646DE4000D03FE7F8BD001002408F
:10088000000001400004004800080048000C004837
:1008900000040140002A01D08161704781627047E5
:1008A0000148806870470000080000200248816805
:1008B00002788918816070470800002010B506484A
:1008C0000168102211430160032000F007F800F0D6
:1008D00027F8002010BD00000020024070B504463B
:1008E0000D4D7D202978C000FFF7F1FC01460B4833
:1008F0000068FFF7ECFC00F02DFB002809D1042C68
:1009000007D200222146401E00F02AF800206C6029
:1009100070BD012070BD0000080000201400002000
:1009200008B508488169012211438161816911403C
:100930000091C26901040A43C261C0690840009085
:1009400008BD000000100240002805DBC106C90EEA
:1009500001208840014908607047000000E100E084
:1009600010B501F079FD10BDF8B505460068354CAD
:10097000C00352D5E0690026C00007D4E169200415
:100980000143E161E1690140012600912E480168BF
:10099000C90510D40168821511430160FFF780FF7B
:1009A000074604E0FFF77CFFC01B642824D82648D4
:1009B0000068C005F6D5206A03273F02384020D0E2
:1009C0006968394081421CD0206A226AB8430121FB
:1009D00009040A432262226A8A4322622062C00713
:1009E0000FD0FFF75DFF009008E0FFF759FF009977
:1009F000411A1648814201D90320F8BD206A8007B8
:100A0000F3D5206A6968B84308432062002E04D0F9
:100A1000E169012000078143E1612878C00705D022
:100A2000206BA9688008800008432063287880062E
:100A300005D5206B10218843E96808432063002016
:100A4000F8BD000000100240007000408813000054
:100A5000F8B50F46060059D03A4D2868C007C00FB8
:100A6000B84209D228684008400038432860286806
:100A7000C007C00FB84249D13068334C81070CD54C
:100A8000400704D560680721090208436060606878
:100A9000F0218843B168084360603078C00726D0F1
:100AA000706801280ED0216802280ED0890700291D
:100AB0002CDA61688908890001436160FFF7F0FE64
:100AC00000900DE021688903F1E78901EFE7FFF766
:100AD000E7FE0099411A1D48814201D90320F8BD63
:100AE00060680C210840716889008842EFD128684D
:100AF000C007C00FB8420BD92868400840003843EF
:100B000028602868C007C00FB84201D00120F8BD96
:100B10003078400706D56068072109028843F168EC
:100B20000843606000F028F86168094A0906090F67
:100B3000515CC840074908600320FFF7CFFE002042
:100B4000F8BD0000002002400010024088130000A1
:100B5000742600081400002004480549006849680C
:100B6000044A4905490F515CC840704714000020F1
:100B7000001002408426000810B5104A51680C206D
:100B80000B4603400E48042B17D0082B15D18B02BF
:100B90000C4C1B0FE45CD26A0A4B1207120F103385
:100BA0009A5CC90305D500231946FFF7EFFA2146E1
:100BB00001E02046044901F036FC10BD001002405F
:100BC00000127A005426000800093D00FEB504001A
:100BD00070D02078DC4DC0074AD068680007800FCD
:100BE000012807D068680007800F022809D16868CB
:100BF000C00306D5286880033AD560680028E7D08E
:100C000036E06168012914D001208004002901D058
:100C1000052914D02A68012109048A432A60296819
:100C2000814329606068002816D0FFF739FE064628
:100C30000EE028680121090408432860F2E72968CA
:100C400001432960F5E7FFF72BFE801B64286ED86F
:100C500028688003F7D50BE0FFF722FE064604E084
:100C6000FFF71EFE801B6428F1D828688003F7D4A4
:100C700020780126800700283CDA68680007800F8A
:100C800007D068680007800F022809D16868C00390
:100C900006D42868800716D5E06801280AD112E03A
:100CA000E0680028286816D030432860FFF7F8FD78
:100CB000074605E043E1FFF7F3FDC01B0228C6D855
:100CC00028688007F7D52868F82188432169C9007A
:100CD000084328600EE0400840002860FFF7E0FD70
:100CE000074604E0FFF7DCFDC01B0228AFD82868E8
:100CF0008007F7D42078000722D5E0690028686AC9
:100D00000ED030436862FFF7CBFD074604E0FFF7E3
:100D1000C7FDC01B02289AD8686A8007F7D50FE084
:100D2000400840006862FFF7BBFD074605E09DE014
:100D3000FFF7B6FDC01B022889D8686A8007F7D480
:100D4000207804274007002860DA00200190E86935
:100D5000C00008D4E969B8060143E961E9690140C6
:100D600001200091019079480168C90511D40168FA
:100D7000821511430160FFF793FD009005E0FFF736
:100D80008FFD0099401A642870D870480068C0052B
:100D9000F5D5A06801280AD0002801D0052810D078
:100DA000286A400840002862286AB84301E0286A9F
:100DB00030432862A068002812D0FFF771FD009030
:100DC0000AE0286A38432862F1E7FFF769FD0099D5
:100DD000411A5F48814249D8286A8007F5D50DE05D
:100DE000FFF75EFD009006E0FFF75AFD0099411AFB
:100DF000574881423AD8286A8007F5D401980028DC
:100E000004D0E969012000078143E9612078C00628
:100E100035D5606901280CD0401D686B23D038435C
:100E20006863686B400840006863FFF739FD064659
:100E300022E0686B38436863686B30436863FFF790
:100E40002FFD064604E0FFF72BFD801B02285BD830
:100E5000686B8007F7D5686BF8218843A169C900E2
:100E6000084368630BE0B8436863F4E74CE0FFF7BE
:100E700017FD801B022847D8686B8007F7D4206ACB
:100E800000285ED069680907890F022942D001262F
:100E900036060228286805D0B0432860FFF700FD19
:100EA000044633E0B0432860FFF7FAFC074604E04D
:100EB000FFF7F6FCC01B022826D828688001F7D46B
:100EC000E86AE16A000900010843E862616AA06A11
:100ED000084369683D22120491430843686028680A
:100EE00030432860FFF7DCFC044604E0FFF7D8FC41
:100EF000001B022808D828688001F7D521E0FFF7F9
:100F0000CFFC001B022801D90320FEBD2868800108
:100F1000F5D416E00128F8D06868E96A01221204C5
:100F2000636A02409A420AD10907E26A090F9142B4
:100F300005D10F2189040840A16A884201D001200F
:100F4000FEBD0020FEBD0000001002400070004009
:100F500088130000094910B5401E884201D90120BC
:100F600010BD074C60610321081F01F075FA0020D5
:100F7000A06107202061002010BD0000FFFFFF00DE
:100F800000E000E07047704730B5034620331A7F19
:100F9000012A26D001221A770325CA682D02AA4306
:100FA0008D6800242A430125AD02AA434D680068DC
:100FB0002A430125ED02AA430D682A4301252D038A
:100FC000AA430D692A4301256D03AA434D69C969E6
:100FD0002A430125AD03AA430A4342641C7700203B
:100FE00030BD022030BD0000F0B502462032137F34
:100FF000012B1BD0012616770223537705686B68F7
:10100000AC687027BB430F681F436F600068084BD4
:10101000984202D0074B984204D1802349689C43F0
:1010200021438160567700201077F0BD0220F0BD8B
:10103000002C01400004004070B5040005D0254696
:101040002035687F002802D006E0012070BD002016
:101050002877204600F014F802206877211D2068C8
:1010600000F0BEFD01204034A071A877E877207021
:101070006070A070E070207160716877002070BDB2
:1010800070B586B0044614216846FFF71EF9314E4C
:1010900025680122092000242F4952040223C0069A
:1010A000B54216D18E69CD142E438E618E692E40C5
:1010B00005964D6915434D6149696D46114005918D
:1010C00040211AC5694603940493FFF711FB06B04B
:1010D00070BD224EB54205D1C8691843C861C869C0
:1010E000184012E01E4EB54207D1CA69A815024346
:1010F000CA61C96901400591E9E71A4EB54206D1B6
:10110000886910438861886910400590DFE7164EB2
:10111000B542DCD18E690125AD042E438E618E6906
:101120002E4005964D6915434D6149696D46114044
:101130000591012189021AC5039469460494FFF7B9
:10114000D7FA002211461620FFF70AFC1620FFF7F7
:10115000FBFBBCE7002C01400010024000040040F3
:101160000020004000440140004801400146203179
:101170004A7F012A01D00120704702224A77026883
:10118000D36801210B43D3600068084A904202D023
:10119000074A904204D182685207520F062A02D0B1
:1011A00002680A430260002070470000002C0140E2
:1011B00000040040F8B5054604462035287F002687
:1011C000012817D0012028770220687722689068CC
:1011D0007727FF23B8431B02984390600868502884
:1011E00038D00EDC20284FD006DC00284CD0102848
:1011F0001ED149E00220F8BD302845D0402817D143
:101200003AE060282ED0702819D001221203801AEB
:101210000FD090420CD1CB684A688968206800F0F2
:1012200030FD20688168012292031143816000E053
:10123000012601206877002028773046F8BDCB686A
:101240004A688968206800F01CFD21688868384376
:101250008860EEE7CA684968206800F007FE502100
:10126000206806E0CA684968206800F010FE602126
:10127000206800F011FDDCE7CA684968206800F0CA
:10128000F5FD40212068F4E7226801461046F0E7AA
:101290007047F8B504460068C66805690027A907C5
:1012A000002913DAB10711D5F91E01610120207759
:1012B000206880698007204602D0FFF7E9FF04E03C
:1012C00000F0E0F8204600F06BF92777680716D5A4
:1012D000700714D504202168C043086102202077DC
:1012E000206880698005800F204602D0FFF7D0FF7C
:1012F00004E000F0C7F8204600F052F927772807ED
:1013000015D5300713D508202168C0430861042093
:1013100020772068C0698007204602D0FFF7B8FF19
:1013200004E000F0AFF8204600F03AF92777E8062D
:1013300016D5F00614D510202168C0430861082096
:1013400020772068C0698005800F204602D0FFF713
:101350009FFF04E000F096F8204600F021F927777F
:10136000E80708D0F00706D001202168C0430861D3
:10137000204600F065F9280608D5300606D58020FD
:101380002168C04308612046FFF7FCFD680608D5C8
:10139000700606D540202168C0430861204600F051
:1013A00050F9A80608D5B00606D520202168C0430C
:1013B00008612046FFF7E7FDF8BD000070B586B074
:1013C000044614216846FEF780FF284E0123256855
:1013D0000920002226495B040224C006B5420CD134
:1013E0004D691D434D6149690292194005911912D9
:1013F000019404940392009135E01E4EB54212D13F
:101400004B69281303434B61496900940140012053
:101410000591049002920194039269461648FFF7E1
:1014200067F906B070BD154EB5420CD14D691D432C
:101430004D61496902921940059110210091019472
:10144000039204210EE00E4EB542EAD14D691D43D0
:101450004D614969029219400591802100910194E2
:101460000392052104916946D9E70000002C014050
:10147000001002400004004000040048002000402A
:10148000004801407047F8B5064604462036307FD4
:1014900000270D4601280ED001203077002A0CD0FD
:1014A000042A1BD0082A2FD00C2A3ED00127002066
:1014B00030773846F8BD0220F8BD206800F0F4FB14
:1014C00020688169082211438161206882690421B2
:1014D0008A438261206881692A6912E0206800F0ED
:1014E0001FFC206882690121C9020A4382612068C9
:1014F00081690122920291438161206881692A6990
:10150000120211438161D2E7206800F043FC206899
:10151000C16908221143C1612068C26904218A435C
:10152000C2612068C1692A6912E0206800F06EFC7F
:101530002068C1690122D2021143C1612068C269D9
:10154000012189028A43C2612068C1692A691202A5
:101550001143C161ABE770B5040005D025462035C5
:10156000687F002802D006E0012070BD00202877A7
:10157000204600F014F802206877211D206800F052
:101580002FFB01204034A071A877E87720706070AD
:10159000A070E070207160716877002070BD7047A6
:1015A0007047000010B504460222203000290AD0FE
:1015B00004290DD02046403008290ED04378012B55
:1015C00010D0012010BD837F012BFAD182770AE071
:1015D000C37F012BF5D1C27705E00378012BF0D151
:1015E000027000E042700122206800F03DFB1049CB
:1015F0002068884205D00F4A904202D00E4A90429D
:1016000004D1426C0123DB031A43426420680122A7
:10161000884202D00949884204D181684907490FAC
:10162000062902D0016811430160002010BD0000AE
:10163000002C0140004401400048014000040040EB
:10164000704770477047704710B5040003D0E06FD3
:10165000002802D007E0012010BD002178200155AC
:10166000204600F027F82420E06720680168490838
:1016700049000160606A002802D0204600F01AFC90
:10168000204600F0A1FD0128E6D020684168012233
:10169000D2029143416020688168082291438160B1
:1016A00020680168012211430160204600F068FCB7
:1016B00010BD000070B586B0064614216846FEF7DE
:1016C00004FE1D493068884233D11C498A690120D3
:1016D000800302438A618A69024005924A69C00018
:1016E00002434A6149690025014005910C200090A0
:1016F000022001900320039001200490092002950C
:101700006946C006FEF7F4FF0D480E4C21C4256063
:10171000A560E56080202561606080016061094806
:10172000083CFEF773FF002801D0FEF7E1FE746766
:10173000666206B070BD0000003801400010024033
:10174000300002402803002070B580231B58202B56
:1017500001D0022070BD00290BD0002A09D001243D
:1017600083682403A34206D10369002B03D1CB076E
:1017700001D0012070BD00230366046863681B026A
:101780000BD5EFF31083012585F31088256801261A
:10179000B6063543256083F3108800F0A3FD70BDC5
:1017A00010B500680449884204D101220349044865
:1017B000FFF7CAFF10BD0000003801400000002004
:1017C000A00200207047FEE710B586B014216846DD
:1017D000FEF77BFD15484269012189050A434261F4
:1017E00042690A400592426949110A4342614269CD
:1017F0000A400592426949000A434261406909244E
:101800000840E4060590002203212046FFF742F835
:10181000012003210190022000910391029069466A
:101820002046FEF765FF06B010BD00000010024024
:1018300010B588B01C216846FEF747FD19481849C5
:10184000016000240B2184604160046116498461B9
:10185000C160FFF7F1FB002801D072B6FEE7114826
:10186000FFF779FE002801D072B6FEE760200090F5
:101870000E48019002200290002269460494094813
:10188000FFF701FE002801D072B6FEE700210548EF
:10189000FFF788FE0348FFF791FD08B010BD000078
:1018A00000200040C80100200F270000871300001F
:1018B00010B590B01C2108A8FEF707FD202168464E
:1018C000FEF703FD25482449016000242F21846090
:1018D00041600461446122498461C160FFF7ACFB4F
:1018E000002801D072B6FEE71C48FFF734FE00283E
:1018F00001D072B6FEE7602008901A4809900220D5
:101900000A900B940C940D94002208A90E9413488D
:10191000FFF7B9FD002801D072B6FEE7012002945E
:1019200080030094079001940394049469460594FD
:101930000A48FFF729FB002801D072B6FEE7002114
:101940000648FFF72FFE0548FFF710FC0348FFF796
:1019500035FD10B010BD00000048014058020020C5
:101960000F2700008713000010B596B000240F94D5
:1019700010941194129413941C2108A81494FEF747
:10198000A4FC20216846FEF7A0FC2E482C490160EB
:10199000172184604160046144612B498461C16006
:1019A000FFF74AFB002801D072B6FEE701200003D2
:1019B0000F900FA92348FFF7FDFB002801D072B656
:1019C000FEE72048FFF7C7FD002801D072B6FEE70A
:1019D000139413A91B481494FFF706FB002801D0A9
:1019E00072B6FEE7602008901848099002200A901D
:1019F0000B940C940D94042208A90E941148FFF73F
:101A000042FD002801D072B6FEE701200294800357
:101A1000009407900194039404946946059409483E
:101A2000FFF7B2FA002801D072B6FEE7042105489C
:101A3000FFF7B8FD0348FFF7C1FC16B010BD00006A
:101A4000002C0140380100200F2700008713000000
:101A500010B58EB000240794089409940A940B944E
:101A60001C2168460C94FEF730FC23482149016094
:101A70000F2184604160046120498461C160FFF7E7
:101A8000DBFA002801D072B6FEE7012000030790C0
:101A900007A91948FFF78EFB002801D072B6FEE7B0
:101AA0001548FFF758FD002801D072B6FEE70B94E9
:101AB0000BA911480C94FFF797FA002801D072B6D1
:101AC000FEE7602000900E480190022002900C2258
:101AD000694604940848FFF7D6FC002801D072B686
:101AE000FEE70C210448FFF75DFD0348FFF766FCA5
:101AF0000EB010BD00040040800100200F27000040
:101B00008713000010B50C480A4901604B214902B7
:101B1000416000218160C16001618161C1610C226D
:101B2000016242614162FFF78FFD002801D072B669
:101B3000FEE710BD00380140A0020020FEE770471C
:101B4000704710B5FEF7B2FE10BD70B594B03021ED
:101B50006846FEF7BAFB002401250E94280413946E
:101B60000F9409900D941094009500010C94129418
:101B7000022601950A90119408960B946846FFF787
:101B800025F8002801D072B6FEE707200C900E94CD
:101B900001210D960F940CA8FEF75AFF002801D0E2
:101BA00072B6FEE710A810951294FEF7DDFE00282D
:101BB00001D072B6FEE714B070BD704710B506488C
:101BC000FFF767FB054C2078C00701D100F026FD28
:101BD0002068401C206010BD580200200400002036
:101BE00070B502681B4B1C4E984201D0B04203D125
:101BF0007024A2434C682243184C194D984208D0D7
:101C0000B04206D0174EB04203D0A04201D0A84245
:101C100004D103263602B243CE6832438026B24353
:101C20004E69324302608A68C2620A6882629842E0
:101C300003D0A04201D0A84201D10969016301216A
:101C400041610169C90703D001694908490001617F
:101C500070BD0000002C0140000400400044014021
:101C6000004801400020004010B5CB06DB0E0121EA
:101C7000046A99408C430462016A9A4011430162EC
:101C800010BD30B58468FF252D021B021343AC4301
:101C90000B432343836030BD826870239A430A4319
:101CA00007210A4382607047F0B5056A026A52084C
:101CB00052000262436882697024A24392080C6851
:101CC00092001443022295438A68134E2A43114D11
:101CD000A84204D0B04202D0104FB84206D1082723
:101CE000BA43CF681743042297433A46A84204D028
:101CF000B04202D0094DA84206D103252D02AB43C4
:101D00004D691D438B692B4343608461496841637E
:101D10000262F0BD002C0140004401400048014037
:101D200070B5046A026A10239A43026243688269AA
:101D300073252D02AA430D682D02154320229443DA
:101D40008A6812012243104CA04208D11446CA6886
:101D50008026B443120122434024A24305E00B4CE9
:101D6000A04202D00A4CA04208D10324A402A343FB
:101D70004C69A4001C438B699B002343436085612D
:101D800049688163026270BD002C0140004401403B
:101D90000048014070B5056A026AFF2301339A4387
:101DA00002624268C3697024A3439B080C689B00CD
:101DB0001C4301235B029D438B681B022B43104D88
:101DC000A84208D11D46CB68C614B5431B022B435D
:101DD0000515AB4305E00B4DA84202D00A4DA842C1
:101DE00008D103252D03AA434D692D0115438A69A6
:101DF00012012A434260C4614968C163036270BD35
:101E0000002C0140004401400048014030B5046A04
:101E1000026A01231B039A4302624368C269732565
:101E20002D02AA430D682D0215430122520394434B
:101E30008A68120322430A4CA04205D0094CA042F2
:101E400002D0094CA04205D10124A403A3434C694C
:101E5000A40123434360C56149680164026230BD47
:101E6000002C0140004401400048014030B5036AA5
:101E7000046A6408640004628469F025AC431201BA
:101E800022430A24A3430B438261036230BD30B571
:101E9000046A036A1025AB43036283690F252D038F
:101EA0001203AB431A43A0239C43090121438261DF
:101EB000016230BD10B5818C090707D501684A68F9
:101EC0000123DB039A43436B1A434A60818CC907A1
:101ED00007D001684A6801235B049A43836A1A4366
:101EE0004A60818C890707D501684A6801231B0471
:101EF0009A43C36A1A434A60818C490707D501682F
:101F00004A6801239B049A43036B1A434A60818CFD
:101F1000C90607D50268916801231B039943836BA7
:101F200019439160818C890607D501688A6801236D
:101F30005B039A43C36B1A438A60818C490612D5AE
:101F400003685A6801210905046C8A4322435A60D8
:101F5000026C8A4207D10268516803235B059943EA
:101F6000436C19435160818C090607D501684A68A2
:101F70000123DB04806C9A4302434A6010BD0000D9
:101F8000FEB507460025803704467D60FEF788FCD5
:101F9000019020680068264600076036002819DA9C
:101FA000274800900121002249052046019B00F0AE
:101FB000EFF900280ED0EFF31080012181F3108893
:101FC00021680A6880239A430A6080F310882020E1
:101FD000E06729E020680068400728D5184800908D
:101FE0000121002289052046019B00F0D1F900283B
:101FF0001DD0EFF31080012181F3108821680A6859
:10200000FF2321339A430A6080F31088EFF3108096
:10201000012181F3108821688A68520852008A6081
:1020200080F310882020386035760320FEBD202004
:10203000E06738602566656635760020FEBD0000E5
:10204000FFFFFF01F8B5446AE06F254680352E6832
:102050002168896800270906002906DA212804D1A9
:1020600052200753204600F09FF820688068400601
:1020700006D5222E04D15A200753204600F064F8DA
:1020800068681021084368602046FFF7DCFAF8BD55
:1020900070B501468969406A0022202938D05A214A
:1020A0000A52EFF31081012383F3108803681C6840
:1020B000FF250135AC431C6081F31088EFF31081DC
:1020C000012383F3108803689C68640864009C60A3
:1020D00081F31088EFF31081012383F310880368E4
:1020E0009C684025AC439C6081F3108820238021AC
:1020F0000B50016E01290BD1EFF31081012383F303
:10210000108803681C681025AC431C6081F310889C
:102110004266016E012902D0FFF742FB70BD5821D3
:10212000095AFFF78FFA70BD10B5406A0121416668
:10213000016E012902D0FFF745FB10BD5821095A55
:102140004908FFF77FFA10BD10B5EFF310810122A7
:1021500082F3108802681368FF242134A3431360BC
:1021600081F31088EFF31081012282F31088026856
:1021700093685B085B00936081F31088016E01290E
:102180000BD1EFF31081012282F3108802681368EB
:102190001024A343136081F31088202280210A5069
:1021A00000210166816610BD10B5EFF31081012298
:1021B00082F3108802681368C024A343136081F37C
:1021C00010882021C16710BD70B504468068216960
:1021D000E2690843616900251143084321680A68E0
:1021E0003C4B1A4002430A602168486803221203EC
:1021F0009043E26810434860A169206A084321685F
:102200008A680B231B029A4302438A603248006BA0
:102210008007800F16D0012818D0022818D0032874
:1022200012D010210122E369D2032C482C4E934294
:102230002AD100290ED0022913D004290DD0082953
:102240003BD11FE00021EDE70221EBE70421E9E7A4
:102250000821E7E7FEF780FC01E0FEF78DFC00288F
:1022600032D0616840004A088018FEF730F8014615
:102270001039B14221D81A49491C01400007400FCA
:1022800008431FE01046ECE7002906D002290BD0D6
:10229000042905D0082910D111E0FEF75DFC01E00A
:1022A000FEF76AFC00280FD061684A081018FEF794
:1022B0000EF801461039B14203D9012504E0104659
:1022C000F2E780B22168C8600020A066E066284678
:1022D00070BD0000F369FFFF0010024000127A0099
:1022E000EFFF000070B504464165403002830020D6
:1022F00025468035686022212960616F002919D048
:10230000204B8B62636F2049D962636F1F49196349
:10231000616F13464863666D216832462431606FF1
:10232000FEF79EF9002805D0102068602020286064
:10233000012070BD206900280CD0EFF3108001212E
:1023400081F3108821680A68FF2301331A430A6069
:1023500080F31088EFF31080012181F31088226848
:1023600093680B43936080F31088EFF3108081F340
:10237000108821688A6840231A438A6080F3108895
:10238000002070BD91200008292100084520000888
:10239000FFB506468036054681B00F4604466035D7
:1023A00034E00A98401C31D0FEF77AFA0499411AB9
:1023B0000A98814218D8002816D020680168490779
:1023C00024D5802F22D0402F20D0C169C9430907CE
:1023D0000CD4082707622046FFF7B6FE776000207E
:1023E0002876012005B0F0BD0320FBE7C069C0439B
:1023F00000050BD401202168C00208622046FFF7C7
:10240000A3FE2020706000202876EDE72068C169D7
:102410003846884305D0002103988142C1D000206E
:10242000E0E70121F8E7F8B5040C8BB2264682B24A
:102430005E430D0C1046370C5843360480190021BA
:10244000794116466E43370C360480197941264689
:102450006E438919F8BD00008307FF22DB0E9A4006
:102460008907090E9940002808DB830809489B006A
:102470001B18186890430843186070470007000F46
:102480000838830804489B001B18D8699043084308
:10249000D861704700E400E000ED00E030B505468B
:1024A000002000F0CBF800242846E040C007C00F11
:1024B00000F0C4F8641CE4B2082CF5D3284600F000
:1024C00006F800F0BBF8012000F0B8F830BD024675
:1024D000002001461346CB40DB07DB0F491C584068
:1024E000C9B20829F6D37047C21DF9321378517862
:1024F0008B4201D1FF207047405C491C51707047EE
:1025000030B5C21DF932137855785C1CE4B2AC4288
:1025100003D0C1541078401C107030BD08B5FEF7D0
:10252000CDF9FFF712FBFFF74FF925484169012567
:1025300029434161406900222840009011460A2049
:10254000FEF70EFA0A20FEF7FFF91F481D49002486
:1025500001600471C46085610461FDF7CBFF002850
:1025600001D072B6FEE7FFF7FFF9FFF771FAFFF748
:102570005FF915481549F43001602F2184604160EE
:102580000461446112498461C160FEF755FD002871
:1025900001D072B6FEE7FFF78BF9FFF7B3FA00241C
:1025A000FF25F5352046641CE4B2FFF777FF284687
:1025B000FEF78CF8012207490748FFF7C5F8F1E755
:1025C00000100240003002401C0100200044014085
:1025D000CF07000000000020A002002010B509492C
:1025E000094A0A4B0A4C0968002801D0094800E052
:1025F000094888631168086419684863216848635A
:1026000010BD00003801002080010020C80100201A
:1026100058020020CF070000571B000000B50548F6
:1026200001784078814204D00348FFF75DFFFFF74F
:10263000D5FF00BD180100201800002000B50028BB
:1026400004D000210248FFF75BFF00BD0121F9E73C
:102650001800002002030405060708090A0B0C0DE8
:102660000E0F10100102030405060708090A0B0CDF
:102670000D0E0F1000000000000000000102030416
:10268000060708090000000001020304AC26000848
:102690000000002018000000F4000008C426000814
:1026A00018000020B8090000100100080000000018
:1026B0000000000001000000040000000000000015
:0426C00000127A008A
:04000005080000B13E
:00000001FF
